{
  "contractName": "CALKIco",
  "abi": [
    {
      "inputs": [
        {
          "internalType": "uint256",
          "name": "price",
          "type": "uint256"
        },
        {
          "internalType": "address payable",
          "name": "seller",
          "type": "address"
        },
        {
          "internalType": "address",
          "name": "erc20Address",
          "type": "address"
        }
      ],
      "stateMutability": "nonpayable",
      "type": "constructor"
    },
    {
      "inputs": [],
      "name": "_price",
      "outputs": [
        {
          "internalType": "uint256",
          "name": "",
          "type": "uint256"
        }
      ],
      "stateMutability": "view",
      "type": "function"
    },
    {
      "inputs": [],
      "name": "token",
      "outputs": [
        {
          "internalType": "contract FirstErc20",
          "name": "",
          "type": "address"
        }
      ],
      "stateMutability": "view",
      "type": "function"
    },
    {
      "stateMutability": "payable",
      "type": "receive"
    },
    {
      "inputs": [],
      "name": "getCurrentPrice",
      "outputs": [
        {
          "internalType": "uint256",
          "name": "",
          "type": "uint256"
        }
      ],
      "stateMutability": "view",
      "type": "function"
    },
    {
      "inputs": [
        {
          "internalType": "uint256",
          "name": "nbTokens",
          "type": "uint256"
        }
      ],
      "name": "getPricePerNbTokens",
      "outputs": [
        {
          "internalType": "uint256",
          "name": "",
          "type": "uint256"
        }
      ],
      "stateMutability": "view",
      "type": "function"
    },
    {
      "inputs": [
        {
          "internalType": "uint256",
          "name": "_buyPrice",
          "type": "uint256"
        }
      ],
      "name": "getNbTokensPerPrice",
      "outputs": [
        {
          "internalType": "uint256",
          "name": "",
          "type": "uint256"
        }
      ],
      "stateMutability": "view",
      "type": "function"
    },
    {
      "inputs": [
        {
          "internalType": "uint256",
          "name": "nbTokens",
          "type": "uint256"
        }
      ],
      "name": "buy",
      "outputs": [
        {
          "internalType": "bool",
          "name": "",
          "type": "bool"
        }
      ],
      "stateMutability": "payable",
      "type": "function"
    }
  ],
  "bytecode": "0x608060405234801561001057600080fd5b506040516108e43803806108e48339818101604052606081101561003357600080fd5b810190808051906020019092919080519060200190929190805190602001909291905050508260018190555081600260006101000a81548173ffffffffffffffffffffffffffffffffffffffff021916908373ffffffffffffffffffffffffffffffffffffffff160217905550806000806101000a81548173ffffffffffffffffffffffffffffffffffffffff021916908373ffffffffffffffffffffffffffffffffffffffff1602179055506000809054906101000a900473ffffffffffffffffffffffffffffffffffffffff1673ffffffffffffffffffffffffffffffffffffffff1663313ce5676040518163ffffffff1660e01b815260040160206040518083038186803b15801561014757600080fd5b505afa15801561015b573d6000803e3d6000fd5b505050506040513d602081101561017157600080fd5b810190808051906020019092919050505060ff16600a0a600481905550505050610744806101a06000396000f3fe6080604052600436106100595760003560e01c80631ec2242514610077578063235b6ea1146100c6578063d712750b146100f1578063d96a094a14610140578063eb91d37e14610186578063fc0c546a146101b157610072565b366100725761006f61006a34610208565b61027f565b50005b600080fd5b34801561008357600080fd5b506100b06004803603602081101561009a57600080fd5b81019080803590602001909291905050506105e0565b6040518082815260200191505060405180910390f35b3480156100d257600080fd5b506100db610657565b6040518082815260200191505060405180910390f35b3480156100fd57600080fd5b5061012a6004803603602081101561011457600080fd5b8101908080359060200190929190505050610208565b6040518082815260200191505060405180910390f35b61016c6004803603602081101561015657600080fd5b810190808035906020019092919050505061027f565b604051808215151515815260200191505060405180910390f35b34801561019257600080fd5b5061019b61065d565b6040518082815260200191505060405180910390f35b3480156101bd57600080fd5b506101c6610667565b604051808273ffffffffffffffffffffffffffffffffffffffff1673ffffffffffffffffffffffffffffffffffffffff16815260200191505060405180910390f35b60008060015460045484028161021a57fe5b04905060008111610276576040517f08c379a00000000000000000000000000000000000000000000000000000000081526004018080602001828103825260388152602001806106d76038913960400191505060405180910390fd5b80915050919050565b60008034116102f6576040517f08c379a00000000000000000000000000000000000000000000000000000000081526004018080602001828103825260208152602001807f49434f3a2070757263686173652070726963652063616e206e6f74206265203081525060200191505060405180910390fd5b6000821161036c576040517f08c379a000000000000000000000000000000000000000000000000000000000815260040180806020018281038252601e8152602001807f49434f3a2043616e206e6f74207075726368617365203020746f6b656e73000081525060200191505060405180910390fd5b610375826105e0565b3410156103cd576040517f08c379a000000000000000000000000000000000000000000000000000000000815260040180806020018281038252602381526020018061068d6023913960400191505060405180910390fd5b60006103d8836105e0565b9050600081340390506000809054906101000a900473ffffffffffffffffffffffffffffffffffffffff1673ffffffffffffffffffffffffffffffffffffffff166323b872dd600260009054906101000a900473ffffffffffffffffffffffffffffffffffffffff1633876040518463ffffffff1660e01b8152600401808473ffffffffffffffffffffffffffffffffffffffff1673ffffffffffffffffffffffffffffffffffffffff1681526020018373ffffffffffffffffffffffffffffffffffffffff1673ffffffffffffffffffffffffffffffffffffffff1681526020018281526020019350505050602060405180830381600087803b1580156104df57600080fd5b505af11580156104f3573d6000803e3d6000fd5b505050506040513d602081101561050957600080fd5b810190808051906020019092919050505050600260009054906101000a900473ffffffffffffffffffffffffffffffffffffffff1673ffffffffffffffffffffffffffffffffffffffff166108fc839081150290604051600060405180830381858888f19350505050158015610583573d6000803e3d6000fd5b5060008111156105d5573373ffffffffffffffffffffffffffffffffffffffff166108fc829081150290604051600060405180830381858888f193505050501580156105d3573d6000803e3d6000fd5b505b600192505050919050565b6000806004546001548402816105f257fe5b0490506000811161064e576040517f08c379a00000000000000000000000000000000000000000000000000000000081526004018080602001828103825260278152602001806106b06027913960400191505060405180910390fd5b80915050919050565b60015481565b6000600154905090565b6000809054906101000a900473ffffffffffffffffffffffffffffffffffffffff168156fe49434f3a204e6f7420656e6f7567682065746865727320666f7220707572636861736543414c4b49636f3a204e656564206120686967686572206e756d626572206f6620746f6b656e7343414c4b49636f3a204e65656420612068696768657220616d6f756e74206f6620657468657220666f7220627579696e6720746f6b656e73a26469706673582212208ef5246dbddd8708738406acca06700ce13070acffe584524c22508da378385e64736f6c63430006000033",
  "source": "// SPDX-License-Identifier: MIT\npragma solidity ^0.6.0;\nimport './FirstErc20.sol';\n\n// CalcToken deployed at 0x3e34cf7C6347dA5CBa804188075F8D5CC6B6A73f\n// price = 100000000000000000 wei d'ether (0.1 ether)\n// CALKIco deployed at  0x83508Ca7F827c526DF8993f1d3b35880B9C6767B\ncontract CALKIco {\n  // Declare a FirstErc20 contract\n  FirstErc20 public token;\n\n  // The price of 1 token in wei;\n  uint256 public _price;\n\n  // Address of token seller\n  address payable private _seller;\n\n  uint256 private _ratio;\n\n  uint256 private _decimal;\n\n  constructor(\n    uint256 price, // price pour 1 CALK\n    address payable seller,\n    address erc20Address\n  ) public {\n    _price = price;\n    _seller = seller;\n    token = FirstErc20(erc20Address);\n    _decimal = (10**uint256(token.decimals()));\n  }\n\n  function getCurrentPrice() public view returns (uint256) {\n    return _price;\n  }\n\n  function getPricePerNbTokens(uint256 nbTokens) public view returns (uint256) {\n    uint256 buyPrice = (nbTokens * _price) / _decimal;\n    require(buyPrice > 0, 'CALKIco: Need a higher number of tokens');\n    return buyPrice;\n  }\n\n  function getNbTokensPerPrice(uint256 _buyPrice)\n    public\n    view\n    returns (uint256)\n  {\n    uint256 nbTokens = (_buyPrice * _decimal) / _price;\n    require(\n      nbTokens > 0,\n      'CALKIco: Need a higher amount of ether for buying tokens'\n    );\n    return nbTokens;\n  }\n\n  receive() external payable {\n    buy(getNbTokensPerPrice(msg.value));\n  }\n\n  // nbTokens en wei de CALK\n  function buy(uint256 nbTokens) public payable returns (bool) {\n    // check if ether > 0\n    require(msg.value > 0, 'ICO: purchase price can not be 0');\n    // check if nbTokens > 0\n    require(nbTokens > 0, 'ICO: Can not purchase 0 tokens');\n    // check if enough ethers for nbTokens\n    require(\n      msg.value >= getPricePerNbTokens(nbTokens),\n      'ICO: Not enough ethers for purchase'\n    );\n    uint256 _realPrice = getPricePerNbTokens(nbTokens);\n    uint256 _remaining = msg.value - _realPrice;\n    token.transferFrom(_seller, msg.sender, nbTokens);\n    _seller.transfer(_realPrice);\n    if (_remaining > 0) {\n      msg.sender.transfer(_remaining);\n    }\n    return true;\n  }\n}\n",
  "sourcePath": "/Users/itanis/Desktop/projets/Ico-truffle/contracts/CALCIco.sol",
  "compiler": {
    "name": "solc",
    "version": "0.6.0+commit.26b70077.Emscripten.clang"
  },
  "schemaVersion": "3.3.1",
  "updatedAt": "2020-11-05T23:42:48.078Z",
  "devdoc": {
    "methods": {}
  },
  "userdoc": {
    "methods": {}
  }
}